{
  "_format": "hh-sol-artifact-1",
  "contractName": "Pong",
  "sourceName": "contracts/pong.sol",
  "abi": [
    {
      "anonymous": false,
      "inputs": [
        {
          "indexed": false,
          "internalType": "uint256",
          "name": "tournamentId",
          "type": "uint256"
        },
        {
          "indexed": false,
          "internalType": "uint8",
          "name": "winnerId",
          "type": "uint8"
        },
        {
          "indexed": false,
          "internalType": "uint8",
          "name": "wins",
          "type": "uint8"
        },
        {
          "indexed": false,
          "internalType": "uint8",
          "name": "losses",
          "type": "uint8"
        }
      ],
      "name": "NewTournament",
      "type": "event"
    },
    {
      "anonymous": false,
      "inputs": [
        {
          "indexed": true,
          "internalType": "address",
          "name": "previousOwner",
          "type": "address"
        },
        {
          "indexed": true,
          "internalType": "address",
          "name": "newOwner",
          "type": "address"
        }
      ],
      "name": "OwnershipTransferred",
      "type": "event"
    },
    {
      "anonymous": false,
      "inputs": [
        {
          "indexed": false,
          "internalType": "address",
          "name": "sender",
          "type": "address"
        },
        {
          "indexed": false,
          "internalType": "uint256",
          "name": "amount",
          "type": "uint256"
        }
      ],
      "name": "Received",
      "type": "event"
    },
    {
      "anonymous": false,
      "inputs": [
        {
          "indexed": false,
          "internalType": "address",
          "name": "owner",
          "type": "address"
        },
        {
          "indexed": false,
          "internalType": "uint256",
          "name": "amount",
          "type": "uint256"
        }
      ],
      "name": "Withdrawn",
      "type": "event"
    },
    {
      "inputs": [
        {
          "internalType": "uint8",
          "name": "_winnerId",
          "type": "uint8"
        },
        {
          "internalType": "uint8",
          "name": "_wins",
          "type": "uint8"
        },
        {
          "internalType": "uint8",
          "name": "_losses",
          "type": "uint8"
        }
      ],
      "name": "createTournament",
      "outputs": [],
      "stateMutability": "nonpayable",
      "type": "function"
    },
    {
      "inputs": [],
      "name": "getBalance",
      "outputs": [
        {
          "internalType": "uint256",
          "name": "",
          "type": "uint256"
        }
      ],
      "stateMutability": "view",
      "type": "function"
    },
    {
      "inputs": [
        {
          "internalType": "uint256",
          "name": "_id",
          "type": "uint256"
        }
      ],
      "name": "getTournament",
      "outputs": [
        {
          "internalType": "uint8",
          "name": "winnerId",
          "type": "uint8"
        },
        {
          "internalType": "uint8",
          "name": "winnerWins",
          "type": "uint8"
        },
        {
          "internalType": "uint8",
          "name": "winnerLosses",
          "type": "uint8"
        }
      ],
      "stateMutability": "view",
      "type": "function"
    },
    {
      "inputs": [
        {
          "internalType": "uint256",
          "name": "_id",
          "type": "uint256"
        }
      ],
      "name": "getWinnerId",
      "outputs": [
        {
          "internalType": "uint8",
          "name": "",
          "type": "uint8"
        }
      ],
      "stateMutability": "view",
      "type": "function"
    },
    {
      "inputs": [
        {
          "internalType": "uint256",
          "name": "_id",
          "type": "uint256"
        }
      ],
      "name": "getWinnerLosses",
      "outputs": [
        {
          "internalType": "uint8",
          "name": "",
          "type": "uint8"
        }
      ],
      "stateMutability": "view",
      "type": "function"
    },
    {
      "inputs": [
        {
          "internalType": "uint256",
          "name": "_id",
          "type": "uint256"
        }
      ],
      "name": "getWinnerWins",
      "outputs": [
        {
          "internalType": "uint8",
          "name": "",
          "type": "uint8"
        }
      ],
      "stateMutability": "view",
      "type": "function"
    },
    {
      "inputs": [],
      "name": "isOwner",
      "outputs": [
        {
          "internalType": "bool",
          "name": "",
          "type": "bool"
        }
      ],
      "stateMutability": "view",
      "type": "function"
    },
    {
      "inputs": [],
      "name": "owner",
      "outputs": [
        {
          "internalType": "address",
          "name": "",
          "type": "address"
        }
      ],
      "stateMutability": "view",
      "type": "function"
    },
    {
      "inputs": [],
      "name": "renounceOwnership",
      "outputs": [],
      "stateMutability": "nonpayable",
      "type": "function"
    },
    {
      "inputs": [
        {
          "internalType": "uint256",
          "name": "",
          "type": "uint256"
        }
      ],
      "name": "tournaments",
      "outputs": [
        {
          "internalType": "uint8",
          "name": "winnerId",
          "type": "uint8"
        },
        {
          "internalType": "uint8",
          "name": "winnerWins",
          "type": "uint8"
        },
        {
          "internalType": "uint8",
          "name": "winnerLosses",
          "type": "uint8"
        }
      ],
      "stateMutability": "view",
      "type": "function"
    },
    {
      "inputs": [
        {
          "internalType": "address",
          "name": "newOwner",
          "type": "address"
        }
      ],
      "name": "transferOwnership",
      "outputs": [],
      "stateMutability": "nonpayable",
      "type": "function"
    },
    {
      "inputs": [
        {
          "internalType": "uint256",
          "name": "_amount",
          "type": "uint256"
        }
      ],
      "name": "withdraw",
      "outputs": [],
      "stateMutability": "nonpayable",
      "type": "function"
    },
    {
      "stateMutability": "payable",
      "type": "receive"
    }
  ],
  "bytecode": "0x608060405234801561001057600080fd5b50336000806101000a81548173ffffffffffffffffffffffffffffffffffffffff021916908373ffffffffffffffffffffffffffffffffffffffff16021790555060008054906101000a900473ffffffffffffffffffffffffffffffffffffffff1673ffffffffffffffffffffffffffffffffffffffff16600073ffffffffffffffffffffffffffffffffffffffff167f8be0079c531659141344cd1fd0a4f28419497f9722a3daafe3b4186f6b6457e060405160405180910390a361122c806100db6000396000f3fe6080604052600436106100ab5760003560e01c806344118d0a1161006457806344118d0a1461023a578063715018a6146102635780637503e1b71461027a5780638da5cb5b146102b95780638f32d59b146102e4578063f2fde38b1461030f576100eb565b80630d1e1771146100f0578063116c9b091461012d57806312065fe01461016a5780631a5bd7fc14610195578063234d1042146101d45780632e1a7d4d14610211576100eb565b366100eb577f88a5966d370b9919b20f3e2c13ff65706f196a4e32cc2c12bf57088f8852587433346040516100e1929190610e82565b60405180910390a1005b600080fd5b3480156100fc57600080fd5b5061011760048036038101906101129190610d27565b610338565b6040516101249190610fa6565b60405180910390f35b34801561013957600080fd5b50610154600480360381019061014f9190610d27565b610426565b6040516101619190610fa6565b60405180910390f35b34801561017657600080fd5b5061017f610514565b60405161018c9190610f46565b60405180910390f35b3480156101a157600080fd5b506101bc60048036038101906101b79190610d27565b61051c565b6040516101cb93929190610fc1565b60405180910390f35b3480156101e057600080fd5b506101fb60048036038101906101f69190610d27565b61063b565b6040516102089190610fa6565b60405180910390f35b34801561021d57600080fd5b5061023860048036038101906102339190610d27565b610729565b005b34801561024657600080fd5b50610261600480360381019061025c9190610d50565b610844565b005b34801561026f57600080fd5b50610278610993565b005b34801561028657600080fd5b506102a1600480360381019061029c9190610d27565b610a98565b6040516102b093929190610fc1565b60405180910390f35b3480156102c557600080fd5b506102ce610af5565b6040516102db9190610e67565b60405180910390f35b3480156102f057600080fd5b506102f9610b1e565b6040516103069190610eab565b60405180910390f35b34801561031b57600080fd5b5061033660048036038101906103319190610cfe565b610b75565b005b60008060018054905011610381576040517f08c379a000000000000000000000000000000000000000000000000000000000815260040161037890610ee6565b60405180910390fd5b8160018054905081106103c9576040517f08c379a00000000000000000000000000000000000000000000000000000000081526004016103c090610f06565b60405180910390fd5b60018381548110610403577f4e487b7100000000000000000000000000000000000000000000000000000000600052603260045260246000fd5b9060005260206000200160000160019054906101000a900460ff16915050919050565b6000806001805490501161046f576040517f08c379a000000000000000000000000000000000000000000000000000000000815260040161046690610ee6565b60405180910390fd5b8160018054905081106104b7576040517f08c379a00000000000000000000000000000000000000000000000000000000081526004016104ae90610f06565b60405180910390fd5b600183815481106104f1577f4e487b7100000000000000000000000000000000000000000000000000000000600052603260045260246000fd5b9060005260206000200160000160009054906101000a900460ff16915050919050565b600047905090565b60008060008060018054905011610568576040517f08c379a000000000000000000000000000000000000000000000000000000000815260040161055f90610ee6565b60405180910390fd5b60018054905084106105af576040517f08c379a00000000000000000000000000000000000000000000000000000000081526004016105a690610f06565b60405180910390fd5b6000600185815481106105eb577f4e487b7100000000000000000000000000000000000000000000000000000000600052603260045260246000fd5b9060005260206000200190508060000160009054906101000a900460ff1693508060000160019054906101000a900460ff1692508060000160029054906101000a900460ff169150509193909250565b60008060018054905011610684576040517f08c379a000000000000000000000000000000000000000000000000000000000815260040161067b90610ee6565b60405180910390fd5b8160018054905081106106cc576040517f08c379a00000000000000000000000000000000000000000000000000000000081526004016106c390610f06565b60405180910390fd5b60018381548110610706577f4e487b7100000000000000000000000000000000000000000000000000000000600052603260045260246000fd5b9060005260206000200160000160029054906101000a900460ff16915050919050565b610731610b1e565b610770576040517f08c379a000000000000000000000000000000000000000000000000000000000815260040161076790610ec6565b60405180910390fd5b478111156107b3576040517f08c379a00000000000000000000000000000000000000000000000000000000081526004016107aa90610f26565b60405180910390fd5b6107bb610af5565b73ffffffffffffffffffffffffffffffffffffffff166108fc829081150290604051600060405180830381858888f19350505050158015610800573d6000803e3d6000fd5b507f7084f5476618d8e60b11ef0d7d3f06914655adb8793e28ff7f018d4c76d505d561082a610af5565b82604051610839929190610e82565b60405180910390a150565b61084c610b1e565b61088b576040517f08c379a000000000000000000000000000000000000000000000000000000000815260040161088290610ec6565b60405180910390fd5b600160405180606001604052808560ff1681526020018460ff1681526020018360ff168152509080600181540180825580915050600190039060005260206000200160009091909190915060008201518160000160006101000a81548160ff021916908360ff16021790555060208201518160000160016101000a81548160ff021916908360ff16021790555060408201518160000160026101000a81548160ff021916908360ff160217905550505060006001808054905061094e9190611009565b90507f3d2c214be3207e8618c5a91ae74133b0a49c3a0d69e9a4edd83791da780c5ebf818585856040516109859493929190610f61565b60405180910390a150505050565b61099b610b1e565b6109da576040517f08c379a00000000000000000000000000000000000000000000000000000000081526004016109d190610ec6565b60405180910390fd5b600073ffffffffffffffffffffffffffffffffffffffff1660008054906101000a900473ffffffffffffffffffffffffffffffffffffffff1673ffffffffffffffffffffffffffffffffffffffff167f8be0079c531659141344cd1fd0a4f28419497f9722a3daafe3b4186f6b6457e060405160405180910390a360008060006101000a81548173ffffffffffffffffffffffffffffffffffffffff021916908373ffffffffffffffffffffffffffffffffffffffff160217905550565b60018181548110610aa857600080fd5b906000526020600020016000915090508060000160009054906101000a900460ff16908060000160019054906101000a900460ff16908060000160029054906101000a900460ff16905083565b60008060009054906101000a900473ffffffffffffffffffffffffffffffffffffffff16905090565b60008060009054906101000a900473ffffffffffffffffffffffffffffffffffffffff1673ffffffffffffffffffffffffffffffffffffffff163373ffffffffffffffffffffffffffffffffffffffff1614905090565b610b7d610b1e565b610bbc576040517f08c379a0000000000000000000000000000000000000000000000000000000008152600401610bb390610ec6565b60405180910390fd5b610bc581610bc8565b50565b600073ffffffffffffffffffffffffffffffffffffffff168173ffffffffffffffffffffffffffffffffffffffff161415610c0257600080fd5b8073ffffffffffffffffffffffffffffffffffffffff1660008054906101000a900473ffffffffffffffffffffffffffffffffffffffff1673ffffffffffffffffffffffffffffffffffffffff167f8be0079c531659141344cd1fd0a4f28419497f9722a3daafe3b4186f6b6457e060405160405180910390a3806000806101000a81548173ffffffffffffffffffffffffffffffffffffffff021916908373ffffffffffffffffffffffffffffffffffffffff16021790555050565b600081359050610cce816111b1565b92915050565b600081359050610ce3816111c8565b92915050565b600081359050610cf8816111df565b92915050565b600060208284031215610d1057600080fd5b6000610d1e84828501610cbf565b91505092915050565b600060208284031215610d3957600080fd5b6000610d4784828501610cd4565b91505092915050565b600080600060608486031215610d6557600080fd5b6000610d7386828701610ce9565b9350506020610d8486828701610ce9565b9250506040610d9586828701610ce9565b9150509250925092565b610da88161103d565b82525050565b610db78161104f565b82525050565b6000610dca601783610ff8565b9150610dd5826110c1565b602082019050919050565b6000610ded602483610ff8565b9150610df8826110ea565b604082019050919050565b6000610e10601c83610ff8565b9150610e1b82611139565b602082019050919050565b6000610e33602483610ff8565b9150610e3e82611162565b604082019050919050565b610e528161107b565b82525050565b610e6181611085565b82525050565b6000602082019050610e7c6000830184610d9f565b92915050565b6000604082019050610e976000830185610d9f565b610ea46020830184610e49565b9392505050565b6000602082019050610ec06000830184610dae565b92915050565b60006020820190508181036000830152610edf81610dbd565b9050919050565b60006020820190508181036000830152610eff81610de0565b9050919050565b60006020820190508181036000830152610f1f81610e03565b9050919050565b60006020820190508181036000830152610f3f81610e26565b9050919050565b6000602082019050610f5b6000830184610e49565b92915050565b6000608082019050610f766000830187610e49565b610f836020830186610e58565b610f906040830185610e58565b610f9d6060830184610e58565b95945050505050565b6000602082019050610fbb6000830184610e58565b92915050565b6000606082019050610fd66000830186610e58565b610fe36020830185610e58565b610ff06040830184610e58565b949350505050565b600082825260208201905092915050565b60006110148261107b565b915061101f8361107b565b92508282101561103257611031611092565b5b828203905092915050565b60006110488261105b565b9050919050565b60008115159050919050565b600073ffffffffffffffffffffffffffffffffffffffff82169050919050565b6000819050919050565b600060ff82169050919050565b7f4e487b7100000000000000000000000000000000000000000000000000000000600052601160045260246000fd5b7f43616c6c6572206973206e6f7420746865206f776e6572000000000000000000600082015250565b7f4e6f20746f75726e616d656e74732068617665206265656e207374617274656460008201527f2079657400000000000000000000000000000000000000000000000000000000602082015250565b7f546f75726e616d656e7420494420646f65736e27742065786973742e00000000600082015250565b7f496e73756666696369656e742062616c616e636520696e2074686520636f6e7460008201527f7261637400000000000000000000000000000000000000000000000000000000602082015250565b6111ba8161103d565b81146111c557600080fd5b50565b6111d18161107b565b81146111dc57600080fd5b50565b6111e881611085565b81146111f357600080fd5b5056fea26469706673582212206a7de573571e00641c240630a3861d4e7e9211732b5f6e5818f08f2ffd4ce3d864736f6c63430008040033",
  "linkReferences": {},
  "deployedLinkReferences": {}
}